:10000000F8FF002011040000AB530000AB530000C8
:10001000AB530000AB530000AB530000AB530000E8
:10002000AB530000AB530000AB530000AB530000D8
:10003000AB530000AB530000AB530000AB530000C8
:10004000AB530000AB530000AB530000AB530000B8
:10040000FFFFFFFFFFFFFFFFFFFFFFFFFEFFFFFFFD
:1004100062B608F0A5FBFEE72DE9F04707000E00E5
:1004200000F0DCF8391F09B2380000B200F01DF905
:10043000DFF8501B0870B7F10E0109B2781F00B247
:1004400000F016F98246DFF8400B3FB210EB470090
:1004500020F81CAC0F3F524612B2310009B23800EE
:1004600000B200F08FFBDFF8241B088001F02AF8AF
:10047000DFF81C0B90F90000012811D0DFF8100BF9
:1004800090F9000002280BD0DFF8040B90F900006F
:10049000032805D0DFF8F80A90F9000005281ED1DE
:1004A0003C00DFF8E80AB0F9000024B2844216DB11
:1004B000DFF8E00A24B230F81400DFF8DC1A24B2C6
:1004C00031F8141008181830DFF8D01A24B221F8C7
:1004D0001400200000B200F08BFD641EE1E7DFF89D
:1004E000A82ADFF8A80A0088DFF8A01AB1F90010DE
:1004F000D1F14B01032391FBF3F1091809B2DFF8A5
:100500008C0AB0F9000000F09DFA0400DFF8782AA8
:10051000DFF8780A0088DFF8741AB1F90010D1F119
:100520004B014900032391FBF3F1091809B2DFF8ED
:100530005C0A0088DFF8543AB3F90030D3F14B037A
:10054000032593FBF5F31818401C00B200F07AFA6B
:100550008046DFF8342A4A21DFF8300A0088DFF8C5
:100560002C3AB3F90030D3F14B035B00032593FB26
:10057000F5F31818401C00B200F064FA8146200020
:1005800001F07EF8DFF8182ADFF8183A01F0B0F829
:1005900004000D00404601F073F80022DFF8083A2D
:1005A00001F0A6F822002B0001F074F904000D0000
:1005B000484601F065F8DFF8E829DFF8F03901F086
:1005C00097F822002B0001F065F90022DFF8E039EE
:1005D00001F060F901F0D2F9BDE8F0870020DFF802
:1005E000D4190880DFF8CC09B0F9000078282BDA9C
:1005F0000020DFF8A019DFF8BC29B2F9002021F8AB
:1006000012009F20DFF89419DFF8A829B2F9002022
:1006100021F812005020DFF8A019DFF89829B2F96C
:10062000002021F812005020DFF85C19DFF884293F
:10063000B2F9002021F81200DFF878090088401C88
:10064000DFF870190880CDE70020DFF87019088006
:100650000020DFF86C1908800020DFF86819088096
:100660000020DFF8641908807047020000207047FE
:1006700038B505000C00DFF8540905802DB224B20E
:10068000A5420ADB5021280000B200F095F82800AE
:1006900000B200F01FF96D1EF0E7DFF8EC28DFF87C
:1006A0002C09B0F90010200000B200F0CBF901F0E5
:1006B000ADF9DFF81C190880DFF80009B0F9000077
:1006C00000280AD0DFF8F808B0F90000002804D0AC
:1006D0005020DFF8FC18088021E0DFF8F408B0F9BA
:1006E0000000782804DB7820DFF8E418088005E0B3
:1006F000DFF8DC080088DFF8D8180880DFF8D008B9
:10070000B0F90000292804DA2820DFF8C41808808E
:1007100005E0DFF8BC080088DFF8B4180880DFF8CF
:10072000B008B0F9000032BD70B504000E0015002D
:1007300024B236B2A01B01F08BF9012802D130009F
:1007400000B238E036B206FA84F0022190FBF1F0F4
:10075000DFF8641DA02215FB0211405C00280DD1BA
:100760002A0012B236B206FA84F0022190FBF1F1AF
:1007700009B2200000B2FFF7D7FF1CE036B206FA3C
:1007800084F0022190FBF1F0DFF82C1DA02215FB74
:100790000211405C01280DD12A0012B2310009B2C9
:1007A00036B206FA84F0022390FBF3F000B2FFF7B2
:1007B000BBFF00E0002070BD38B504000D00DFF87D
:1007C000FC0C0580DFF8F40CB0F90000092826DBEA
:1007D000DFF8E40CA02114FB0100DFF8E01CB1F904
:1007E0000010085C002812D1220012B2DFF8CC0CF5
:1007F000B0F90010DFF8C40C0088C01D00B2FFF78C
:1008000093FFDFF8901724B221F8140007E0DFF817
:10081000AC0C00880838DFF8A41C0880D2E7DFF8A9
:100820009C0CB0F9000009280EDA220012B2002157
:10083000DFF8880C0088083000B2FFF775FFDFF89A
:10084000541724B221F81400DFF8700C0580DFF88B
:100850006C0CB0F90000972826DADFF85C0CA021B8
:1008600014FB0100DFF8541CB1F90010085C0028EB
:1008700012D1220012B2DFF8440CB0F90010DFF8F8
:100880003C0C0088C01F00B2FFF74EFFDFF80C17CA
:1008900024B221F8140007E0DFF8200C00880830AB
:1008A000DFF8181C0880D2E7DFF8100CB0F9000060
:1008B00097280EDB220012B29F21DFF8000C00887F
:1008C000083800B2FFF730FFDFF8D01624B221F865
:1008D000140031BDDFF8BC1600B231F91010002948
:1008E00019D0DFF8B81600B231F910109F2912D0D4
:1008F000DFF8A01600B231F91010DFF8A02600B220
:1009000032F910205118022291FBF2F1DFF878261B
:1009100000B222F81010DFF87C1600B231F9101086
:1009200000291FD0DFF8741600B231F910109F298A
:1009300018D1DFF8601600B231F81010DFF8802B04
:1009400000B212EB400232F8962C5118DFF838262C
:1009500000B222F81010DFF868160988491CDFF889
:1009600060261180DFF82C1600B231F91010002932
:100970001FD1DFF8281600B231F910109F2918D0C6
:10098000DFF8181600B231F81010DFF8342B00B27F
:1009900012EB400232F8962C891ADFF8EC2500B2EF
:1009A00022F81010DFF814160988491CDFF80C260D
:1009B0001180DFF8E01500B231F9101000291AD1CA
:1009C000DFF8D81500B231F910109F2913D1DFF8E4
:1009D000F0150988491CDFF8E8251180DFF8DC15DF
:1009E0000988491CDFF8D42511805021DFF89825AB
:1009F00000B222F81010DFF8901500B231F9101093
:100A00009F2901DB9F2104E0DFF87C1500B231F95A
:100A10001010DFF8742500B222F81010DFF8681506
:100A200000B231F91010012901DA002104E0DFF8E9
:100A3000581500B231F91010DFF84C2500B222F839
:100A400010107047F8B504000D0016000020DFF804
:100A5000EC1B08602A0012B2210009B2300000F03D
:100A600072F8601CDFF8D81B08802DB2681EDFF812
:100A7000D01BB1F90010884214DBDFF8C00B00680E
:100A8000DFF8BC1BB1F9001036F911104018DFF87F
:100A9000AC1B0860DFF8A80B0088401CDFF8A01B27
:100AA0000880E2E7DFF8940B006800F0D5FF07004C
:100AB0002DB224B2281B401E00F0CEFF01003800EA
:100AC00000F0E4FFF2BD10B40300080000B233F9F7
:100AD0001040210000B212B290422EDA00B212B2DF
:100AE000904207DA12B233F9124009B28C4201DBAC
:100AF000521EF3E700B212B2904206DA12B233F895
:100B0000124000B223F81040401C00B212B29042D2
:100B100007DA00B233F9104009B2A14201DB401CF0
:100B2000F3E700B212B29042D4DA00B233F81040C8
:100B300012B223F81240521ECCE700B223F8101074
:100B400000B210BC7047F8B504000D0016002DB2BD
:100B500036B2B54215DA320012B2290009B22000CD
:100B6000FFF7B1FF07007A1E12B2290009B2200078
:100B7000FFF7E9FF320012B2791C09B22000FFF73B
:100B8000E2FFF1BD70B504000D00160024B22DB2D5
:100B9000AC4236DBDFF82009A02114FB010036B29D
:100BA000305C002814D1310009B2200000B200F0FE
:100BB00031F8DFF8901A0880DFF8880AB0F90000F1
:100BC00001281ED0DFF87C0AB0F90000022816D0F8
:100BD000DFF8E408A02114FB010036B2305C0128E4
:100BE00006D1310009B2200000B200F0F3F906008E
:100BF00036B2002E02D036B29F2E00D101E0641E24
:100C0000C4E7601CDFF8401A0880DFF83C0AB0F93E
:100C1000000070BD3CB4020000A8DFF8303A30CBD1
:100C200030C0083B0838DA4890F90000012804D0A9
:100C3000D74890F90000072801D10120A0E1DFF892
:100C4000100A90F90000002840F04F81D04890F938
:100C50000000002840F0498109B2652980F24381F3
:100C600009B23C29C0F23F81DFF8E8090180DFF8D2
:100C7000E409B0F90000132836DBDFF83C08A023B4
:100C800012FB0300DFF8CC39B3F90030185C002800
:100C900022D1DFF82408A02312FB0300DFF8B439C7
:100CA000B3F90030181810F8010C012814D1DFF83E
:100CB0000808A02312FB0300DFF89839B3F90030CD
:100CC000181810F8020C012806D1DFF88809B0F9CD
:100CD0000000ADF8000007E0DFF878090088401E4A
:100CE000DFF870391880C2E7DFF868090180DFF8A3
:100CF0006409B0F900008D2833DADFF8BC07A023BF
:100D000012FB0300DFF84C39B3F90030185C0028FF
:100D10001FD1DFF8A407A02312FB0300DFF834394A
:100D2000B3F9003018184078012812D1DFF888078D
:100D3000A02312FB0300DFF81C39B3F900301818A8
:100D40008078012805D1DFF80C090088ADF8020091
:100D500007E0DFF800090088401CDFF8F838188049
:100D6000C5E7DFF8F0080180DFF8E808B0F9000017
:100D7000132837DBDFF84007A02312FB0300DFF85E
:100D8000D438B3F90030181810F8A00C002821D17D
:100D9000DFF82407A02312FB0300DFF8B838B3F90B
:100DA0000030181810F8A10C012813D1DFF808073B
:100DB000A02312FB0300DFF89C38B3F900301818A9
:100DC00010F8A20C012805D1DFF888080088ADF8DA
:100DD000040007E0DFF87C080088401EDFF8743864
:100DE0001880C1E7DFF86C080180DFF86808B0F907
:100DF00000008D2837DADFF8C006A02312FB0300BD
:100E0000DFF85038B3F90030181810F8A00C00289B
:100E100021D1DFF8A406A02312FB0300DFF8343849
:100E2000B3F90030181810F89F0C012813D1DFF81F
:100E30008806A02312FB0300DFF81838B3F900304E
:100E4000181810F89E0C012805D1DFF80808008852
:100E5000ADF8060007E0DFF8FC070088401CDFF86B
:100E6000F4371880C1E7BDF9000000283BD0BDF978
:100E700002009F2837D0BDF90400002833D0BDF907
:100E800006009F282FD0BDF9000050282BDABDF9AD
:100E90000400502827DABDF90200512823DBBDF9F0
:100EA000060051281FDBBDF90000BDF904305B1CB2
:100EB000984218DBBDF90600401EBDF90230984289
:100EC00011DBDFF89407B0F90000002802D10120FF
:100ED0002F4B1870DFF88007B0F90000012802D10D
:100EE00007202B4B187001204AE0294890F9000098
:100EF000032844D1DFF864070180DFF86007B0F908
:100F00000000012821DBDFF8B005A02312FB03005D
:100F1000DFF84837B3F90030185C00280DD1DFF84E
:100F20009805A02312FB0300DFF83037B3F9003037
:100F3000181810F8010C012807D0DFF820070088E6
:100F4000401EDFF818371880D7E7DFF81007B0F930
:100F50000000022390FBF3F00B4B12B223F81200B7
:100F600000200C4B12B223F81200DFF8F0060088C4
:100F7000DFF8EC3612B223F81200022000E0012064
:100F800036BC7047F4B2FF1FA4B0FF1FD2B2FF1FE0
:100F9000F2B2FF1FD4ADFF1FD80BFF1FC4AEFF1F5F
:100FA0009A9999999999B93F0000E03F9999D93F49
:100FB000000054C0D4B2FF1FB4AFFF1FC8B2FF1F60
:100FC000CAB2FF1FCCB2FF1FD0B2FF1FD6B2FF1FA5
:100FD000D8B2FF1F38B504000D00290009B2200067
:100FE00000B2FFF7E9FB200000B200F001F832BDCB
:100FF000DFF8701600B231F91010002900F0BC8043
:10100000DFF85C1600B231F910109F2900F0B480AF
:10101000DFF8501600B231F91010DFF8442600B2A4
:1010200032F910205118022291FBF2F1DFF8382634
:1010300000B212EB4002B2F90220891A00293BD417
:10104000DFF8201600B231F91010DFF8142600B2D4
:1010500032F910205118022291FBF2F1DFF8082634
:1010600000B212EB4002B2F90220891A022901DB18
:10107000022115E0DFF8EC1500B231F91010DFF8AD
:10108000E02500B232F910205118022291FBF2F152
:10109000DFF8D42500B212EB4002B2F90220891A1F
:1010A000DFF8C42500B212EB400252888918DFF83D
:1010B000B82500B222F81010DFF8A81500B231F9F7
:1010C0001010DFF89C2500B232F9102051180222CE
:1010D00091FBF2F1DFF8902500B212EB4002B2F979
:1010E0000220891A01293DDADFF8781500B231F9BA
:1010F0001010DFF86C2500B232F9102051180222CE
:1011000091FBF2F1DFF8602500B212EB4002B2F978
:101110000220891A11F1010F02DA7FF0010115E0B6
:10112000DFF8401500B231F91010DFF8342500B2B5
:1011300032F910205118022291FBF2F1DFF8282534
:1011400000B212EB4002B2F90220891ADFF818252A
:1011500000B212EB400252888918DFF80C2500B269
:1011600022F81010DFF8041591F90010002903D1BE
:101170000021DFF8FC241180DFF8E81400B231F917
:101180001010002900F09880DFF8D41400B231F973
:1011900010109F2940F09080DFF8C81400B231F998
:1011A0001010DFF8C02400B212EB4002B2F90220A6
:1011B000891A00292AD4DFF8AC1400B231F91010D2
:1011C000DFF8A02400B212EB4002B2F90220891A23
:1011D000022901DB02210CE0DFF8881400B231F9AA
:1011E0001010DFF8802400B212EB4002B2F90220A6
:1011F000891ADFF8742400B212EB40025288891871
:10120000DFF8642400B222F810103EE0DFF85C142E
:1012100091F9001000290CD1DFF84C1400B211EB49
:1012200040014988491CDFF8402400B222F8101020
:101230002BE0DFF8301400B231F91010DFF824246D
:1012400000B212EB4002B2F90220891A11F1010F2B
:1012500002DA7FF001010CE0DFF8081400B231F986
:101260001010DFF8002400B212EB4002B2F90220A5
:10127000891ADFF8F42300B212EB40025288891871
:10128000DFF8E42300B222F81010DFF8E413B1F91C
:101290000010012910D1DFF8D41391F900100029B2
:1012A0000AD1DFF8C41300B211EB40014988DFF81E
:1012B000B82300B222F81010DFF8A81300B231F9F9
:1012C0001010002940F08E80DFF8941300B231F93D
:1012D00010109F2900F08680DFF8841300B231F9E6
:1012E0001010DFF87C2300B212EB4002B2F90220AA
:1012F000891A01292CDADFF8681300B231F91010CD
:10130000DFF85C2300B212EB4002B2F90220891A26
:1013100011F1010F02DA7FF001010CE0DFF8401358
:1013200000B231F91010DFF8382300B212EB40029E
:10133000B2F90220891ADFF8302300B212EB400222
:1013400052888918DFF8202300B222F8101036E006
:10135000DFF8181391F9001000290CD1DFF80813F9
:1013600000B211EB40014988491EDFF8FC2200B2AF
:1013700022F8101023E0BA4900B231F91010B84A2F
:1013800000B212EB4002B2F90220891A022901DBF5
:1013900002210AE0B24900B231F91010B04A00B29D
:1013A00012EB4002B2F90220891AAF4A00B212EBE6
:1013B000400252888918AC4A00B222F81010AC4999
:1013C000B1F9001001290DD1A84991F900100029A7
:1013D00008D1A54900B211EB40014988A24A00B2E8
:1013E00022F810109F4900B231F91010002934D1B1
:1013F0009B4900B231F910109F292ED19A4900B2B1
:1014000011EB40014988984A00B222F81010974920
:1014100091F90010002902D10121954A11809549C6
:10142000B1F90010002909D09349B1F90010002941
:1014300004D050218C4A00B222F810108F4909883C
:10144000491C8E4A11808D49B1F900100F2904DB27
:101450005021854A00B222F81010834900B231F9B8
:1014600010109F2901DB9F2103E07F4900B231F971
:1014700010107D4A00B222F810107B4900B231F9F9
:101480001010012901DA002103E0774900B231F997
:101490001010754A00B222F810100749A02210FB64
:1014A0000211714A00B232F91020002353546E49E0
:1014B00000B231F910007047A022FF1FDAB2FF1FFF
:1014C000C40BFF1F6448B0F90000002859D16748D9
:1014D00090F9000001280CD16648B0F900000028FE
:1014E00007D16548B0F90000002802D002205F490A
:1014F00008705E4890F9000002280CD15D48B0F9F0
:101500000000002807D15C48B0F90000002802D193
:10151000032056490870554890F9000003280CD163
:101520005448B0F90000002807D15348B0F9000032
:10153000002802D005204D4908704C4890F9000061
:1015400005280CD14B48B0F90000002807D14A48C3
:10155000B0F90000002802D1062044490870434831
:1015600090F9000006280CD14248B0F9000000288C
:1015700007D14148B0F90000002802D100203B49C2
:1015800008703A4890F90000002811D13948B0F9A4
:10159000000000280CD03848B0F90000002807D01F
:1015A0002B4890F90000002802D10120284908703A
:1015B0002E4890F90000002811D12E48B0F9000003
:1015C00000280CD12C48B0F90000002807D1204891
:1015D00090F90000012802D102201D49087023481B
:1015E00090F90000002811D12248B0F9000000282D
:1015F0000CD02148B0F90000002807D0144890F919
:101600000000022802D1032011490870174890F900
:101610000000002811D11748B0F9000000280CD1B3
:101620001548B0F90000002807D1094890F90000DA
:10163000032802D1002006490870704794B1FF1FAB
:10164000DCB2FF1FDEB2FF1FE0B2FF1FEC90000014
:10165000F3B2FF1FE2B2FF1FCEB2FF1FE4B2FF1FC3
:10166000C4AEFF1FD4ADFF1FA4B0FF1FF2B2FF1F17
:10167000CCB2FF1FC8B2FF1FCAB2FF1FD0B2FF1FFC
:101680005FF0FF0C1CEAD05114BF614506E0C110A9
:10169000400721F0E04101F16051704779B900F055
:1016A000004100020AD0B0FA80FC00FA0CF001F10F
:1016B0006051A1EB0C5101EBD02140057047410274
:1016C0000CBF40F4E0016FF000010020704750F8BB
:1016D000041B61B150F8042BD30744BFA9F10103E7
:1016E0009A180023091F42F8043BFAD1EFE770472C
:1016F000B0B581EA030C0CF0004C40F2FF7515EA1E
:1017000011541DBF15EA1357AC42AF4239E0E4193A
:1017100023EA455343F48013C90241F0004141EAF2
:10172000505EC7021100A7FB020200284FF0000024
:10173000EEFB01204FF00001E3FB072118BF42F050
:101740000102401800214941E3FB0E01A4F5806429
:101750000F0302D252004041494154F101046CDDB3
:10176000470872F1004250F1000051EB0451A1F51D
:1017700080115CBF41EA0C01B0BD4CEA055100206C
:10178000B0BD05EA1357AC4214BFAF4241E050EA86
:10179000410E1CBF52EA430E02E061460020B0BD7C
:1017A00024423C441BD15FEA070EF6D0090302BF76
:1017B00001460020AEF1140EB1FA81F7AEEB07043A
:1017C00001FA07FE0C37C7F1200100FA07F7C840FD
:1017D0004EEA000E23EA455343F48013A2E733F0A8
:1017E0000043B3FA83F704BFB2FA82FE77440B3F9B
:1017F000E41BB7F1200E2FBF02FA0EF3BB40C7F176
:10180000200E22FA0EFE38BF43EA0E03BA40641CD3
:1018100082E750EA410E14BF52EA430E6FF0000116
:101820004FF4001717EB430F8ABF194617EB410F10
:10183000B5E74CEA05510020B0BDD4F10104B4F184
:1018400020070FDAC4F12007520828BF42F0010236
:1018500010FA07F501FA07F7E1BF2A43E0403843E1
:10186000E1400FE0352C98DCC7F1200452EA400239
:1018700020FA07F218BF42F0010231FA07F0A14046
:101880000A43002172F1004250F1000051EB0C01BB
:10189000B0BD010070B44FF0004591EA030C44BFA5
:1018A0006B4000F07BB900BF841A71EB030603D2D2
:1018B000001BB141121973414FF4001C1CEB410F86
:1018C00034BF7CEB430443E00C0DA4EB1356352EE0
:1018D00050DC45EAC323DB0A45EAC121C912B6F14F
:1018E00020050DDD63FA05F6EB4086EA030512429A
:1018F00018BF45F00105C01851F100010CD213E0EA
:1019000062FA06F5F2405540F3415A40B340F340C5
:101910005A408018594107D349085FEA30005FEA0E
:10192000350528BF45F0010501F58011420875F124
:10193000004250F1000041EB045170BC4FF4001C18
:101940001CEB410F38BF70470020090D0905704797
:101950001CEB410F10D252EA43060BD0BCEB410FF7
:1019600005D80C0DAB43661E342EB5DD02E0AB434B
:101970008018594170BC704770BC70474FEAF17CC9
:10198000BCF1E04C2CBFBCF5001F11E05FEA4C0C31
:1019900034BFBCF17F5F2EE05FEA9C0C4FEA0C1C69
:1019A0004FEA3C0CC10071F100414CEB50707047A4
:1019B000C90241EA5051C00218BF41F0010141F093
:1019C00000414FEA6C50C0F10900212810D240EAD2
:1019D000CC7CCCF1200C11FA0CF070F10040CCF171
:1019E000200C21FA0CF00CF0004C40EB0C0070477E
:1019F0004FEACC707047490011F5001F04D84FEA38
:101A0000CC10FF30C0057047C81770474100090E61
:101A10007F3915D4D1F11F0114D4400007D2C00181
:101A200040F00040C84048BF6FF000407047C00120
:101A300040F00040C8404CBF4FF00040404270476B
:101A40000020704700424FF0004058BFC04370472D
:101A5000002848BF40427047002840F10980F44602
:101A6000404200F005F850F000406047002800BFF9
:101A70000AD0B0FA80F18840D1F19D01C905020673
:101A800072F1004241EB10207047000010B5FF23B7
:101A900013EAD0541DBF13EAD1529C429A4239E056
:101AA000A41ADA0780EA0103134042EA012142EA5C
:101AB0000020421A3CBF641E01EB4202090AB2FB3D
:101AC000F1FE01FB1E221202B2FBF1F001FB10221B
:101AD0006EF30F201202B2FBF1FE4EEA00207F34BB
:101AE00006DDFE2C24DA53EA500050EBC45010BD42
:101AF000D4F1020401FB1E2240F08071192C1DDC80
:101B000021FA04F0C4F12004A140114371F1004214
:101B1000584110BD9C421ABF03EAD1529A420FE0CD
:101B200080EA010E0EF00043400004D0490016D1B7
:101B300043F0FF4010BD490008BFD343180010BD5B
:101B40009C4205D1D21AF7D001F00041484010BDA7
:101B50004A0212BF0846484000F0004010BD4AB992
:101B60000902B1FA81F2914044B1A418C00140F0D9
:101B700000409EE7C90141F0004152420002B0FA24
:101B800080F4A040141B94E770B44FF0004591EA34
:101B9000030F44BF6B40FFF787BE00BF841A71EB91
:101BA000030604D26E40001BB141121973414FF479
:101BB000001C1CEB410F34BF7CEB430684E00C0D92
:101BC000A4EB1356362E7DDC012E43DC45EAC323FD
:101BD00043EA525312BFD20292025B08240545EA3F
:101BE000C12141EA5051D2EBC020994125D407D1FF
:101BF000B0FA80F610FA06F164D00020203608E032
:101C0000B1FA81F6B140C6F1200220FA02F2114386
:101C1000B0404FEAF474B4EB465434F001064FEA96
:101C200074040AD8D6F50016760D04F00044F0408E
:101C300061FA06F25040F1404840C00A40EA415083
:101C400021F0004128BF5FEA500550F1000044EB4D
:101C5000D12137E045EAC323DB0A45EAC121C90A9D
:101C6000B6F120050EDD42EA0242120CC5F1200653
:101C700003FA06F6EB4042EA06056D42984161F12F
:101C800000010DE062FA06F5F240554063FA06FCE9
:101C900082EA0C02F3405A406D42904161EB03012D
:101CA00011F4801F05D1641E620502D06D00404111
:101CB000494121F48011430875F1004350F10000BF
:101CC00041EB045170BC70471CEB410F15D223F05F
:101CD000004352EA43060BD04FEA4C0CBCEB410FD9
:101CE00004D80C0D661E342EB7DDEBE7801A99413F
:101CF00050EA410608BF0021E4E708BF1CEB430F90
:101D000028BF6FF00001DDE72DE9F04FA1B082465A
:101D1000002017461D4602910B900DF1440B6FF009
:101D200000490AE017F8011B0298D04702900028EA
:101D300000F0A2820B98401C0B90387808B90B98E1
:101D40009CE22528EED1002005900690079008908F
:101D500009900A9001E040F0010017F8011F2029C6
:101D6000F9D023290DD02B2904D02D2906D03029D4
:101D70000AD00CE040F0020080B2EEE740F0040030
:101D8000FAE740F00800F7E740F01000F4E72A29EE
:101D90000ED12968296051F8042B2960002A0D9280
:101DA00004D5514240F004000D9180B27F1C11E037
:101DB00000210D9109E00D99494505D001EB810302
:101DC00002EB430130390D917F1C3A78A2F13001CA
:101DD0000A29F0D339782E2903D04FF0FF310C9126
:101DE0001DE017F8011F2A2907D1296829607F1CE7
:101DF00051F8042B29600C9211E000210C9109E0AC
:101E00000C99494505D001EB810302EB43013039C0
:101E10000C917F1C3A78A2F130010A29F0D3ADF879
:101E200038000FF6B820397800F066FD08B117F8D1
:101E3000010B8DF83A009DF83A00682802BF397806
:101E40006829622005D06C2804BF38786C2803D13B
:101E500071208DF83A007F1C11A8049017F8014BEF
:101E6000B4F1250024D02038022840F2C580133870
:101E700000F0EB800B3800F04F81401E00F0248111
:101E8000401E022840F2B880001F00F01D81401F54
:101E900000F08380401E00F0D880401E29D0C01E74
:101EA0000CD0801E00F0D180C01E00F0CE803DE13D
:101EB0000120059025208DF8440043E12868286022
:101EC00050F8044B28600394DDF83080B8F1000F1F
:101ED00004D5204600F01CFD804607E04246002164
:101EE000204600F031FD08B1A0EB0408CDF81880C1
:101EF00028E1296829604FF03C0851F8040B29605B
:101F00000021CDE9000111A80390DDE90001049C46
:101F100011B908B90C9AC2B10206120FA0EB021255
:101F20003032D2B23A2AA8BF27320009A8F1010301
:101F300040EA017009091A5508BF0028984604D0E4
:101F4000039A08EB04039A42E6D308EB04000390DB
:101F5000C8F13C010C980691814209DA401A0890B8
:101F60004FF6EF71BDF838000840ADF83800E9E0F1
:101F7000002840F1E7809DF8380000F01400102898
:101F800040F0E0800D98059A801A089A801A401A4D
:101F90000128C0F2D7800890D4E09DF83A0062286A
:101FA0001AD0682806D06A280CD06C281CD071285A
:101FB00008D019E02868286050F8041B28600B98A6
:101FC0000880BFE02868286050F8042B28600B9830
:101FD000C117C2E90001B5E02868286050F8041B69
:101FE00028600B980870ADE02868286050F8041B42
:101FF00028600B980860A5E02868C01D20F0070243
:102000002A60D2E9000108322A60CDE900010029E6
:1020100003D5012005902D200CE0BDF83800810784
:1020200003D5012005902B2004E0C00704D5012032
:10203000059020208DF84400059911A808180390F8
:10204000214600A800F0D8F97CE09DF83A206C2ADF
:102050000DD0712A18BF6A2A09D12868C01D20F046
:1020600007032B60D3E9000108332B6005E02968E2
:10207000296051F8040B29600021CDE90001682A8C
:1020800008BF80B207D0622A08BFC0B203D0742A4A
:1020900018BF7A2A02D10021CDE900019DF838004D
:1020A000000730D5DDE90001002908BF00282AD04B
:1020B00044F02000782826D130208DF844008BF899
:1020C0000140022005901EE09DF83A00294600F0EC
:1020D000D8F8CDE90001002904DA0598411C0591E2
:1020E0002D210EE0BDF83800810704D50598411C6C
:1020F00005912B2105E0C00705D50598411C0591E8
:10210000202100F80B10059911A80818039021460A
:1021100000A800F0EDF815E001200590286828607F
:1021200050F8041B28608DF844100BE00120059046
:102130002520002C8DF8440004D00598411C059101
:1021400000F80B400D980599401A0899401A069915
:10215000401A0999401A0799401A0A99A0EB0108F8
:102160009DF8380040070FD420208DF8400000244F
:1021700008E0012310AA00A9504600F098FB0028AF
:102180007AD1641C4445F4DB059C11AE0AE016F8D4
:10219000011B0298D047029000286DD00B98401C7C
:1021A0000B90641E002CF2D130208DF840000026E8
:1021B000089C08E0012310AA00A9504600F077FB14
:1021C000002859D1761CA642F4DB069C039E0AE047
:1021D00016F8011B0298D047029000284CD00B98AB
:1021E000401C0B90641E002CF2D130208DF8400072
:1021F0000026099C07E0012310AA00A9504600F020
:1022000056FBC8BB761CA642F5DB03980699079CD3
:102210000E1809E016F8011B0298D047029058B337
:102220000B98401C0B90641E002CF3D130208DF8CD
:10223000400000260A9C07E0012310AA00A950468E
:1022400000F035FBC0B9761CA642F5DB9DF83800DE
:1022500040077FF572AD20208DF84000002400E09B
:10226000641C4445BFF669AD012310AA00A950467D
:1022700000F01DFB0028F3D04FF0FF3021B0BDE887
:10228000F08F622826D068281DD06A2808D06C28D4
:1022900027D0712804D0742823D07A280CD020E0CD
:1022A0000868C01D20F007000860D0E9002308304E
:1022B00008601946104670470A680A6052F8040B15
:1022C0000A60002170470A680A6052F8040B0A602D
:1022D00000B20BE00A680A6052F8040B0A6040B2D0
:1022E00004E00A680A6052F8040B0A60C1177047DC
:1022F0002DE9FA4E05460A462F696F2A08BF0824C1
:1023000005D041F02000782814BF0A2410243C2670
:10231000D5E90001642A18BF692A81468A4605D199
:10232000002903DAD9F100096AEB4A0ABAF1000F71
:1023300008BFB9F1000F0CD1286B50B9082C36D169
:1023400095F83800000732D530203B2687F83B004F
:102350002DE0E31748465146224600F021FBA4FB3E
:102360000023A9EB02023032D2B2A6F1010B3A2AC5
:102370005E4603DB9DF80030513B9A1881465FEAC8
:10238000010A0BF8072008BFB9F1000F03D0E86875
:10239000F1198842DDD3082C09D195F838000007DF
:1023A00005D5F05D302802D0761E3020F055C6F1FC
:1023B0003C00A861F119E960296B884208DA081A23
:1023C00028624FF6EF71288F08402887BDE8F38E0A
:1023D00000290ED595F8381001F01401102908D104
:1023E000696B6A69891A2A6A891A081A0128A8BFBA
:1023F0002862BDE8F38E00002DE9F34F8BB0D0E9E1
:102400000089006B002801AF48BF062005D404BF37
:1024100041F02000672802D101200B99086340F2A7
:10242000FF720B984168C1F30A50904220D1080313
:1024300002BF0B98006800280AD10B99032088611D
:102440009DF8300061381A2858D30FF2A44109E0F2
:102450000B99032088619DF8300061381A284AD30F
:102460000FF284410B98C068032200F011FB00E1D9
:10247000012807DA0B9800F046FB012802DB002355
:102480000026EDE00B9ADFF854B1526840F2FE31BD
:1024900061F31E520B994A6040F2FE31461A4046E3
:1024A00049460022002300F04FFB38BF89F0004965
:1024B00036B247F297507043494990FBF1F636B275
:1024C000C6F10707012F92461BDBF80707D55246D6
:1024D0005B4640464946FFF70BF9804689467F1028
:1024E0005046594652465B46FFF702F9002F824696
:1024F0008B46EAD126E00FF2EC31B3E70FF2EC3174
:10250000B0E77F420024374D12E0F80707D5524666
:102510005B4620462946FFF7EBF804460D467F1040
:102520005046594652465B46FFF7E2F882468B46D4
:10253000002FEAD14046494622462B4600F01CFBBC
:10254000804689469DF830000B99DFF89CB0096BF6
:1025500040F02005662D0CBF06F10A000620471842
:10256000142FA8BF132730208DF804000DF10504A7
:10257000012F3BDB4046494600F022FC014604F1B6
:10258000080204234FF00A0CB1FBFCFC0CEB8C049A
:10259000A1EB4401303102F8011D0A21BCFBF1FE20
:1025A0000EEB8E04ACEB440430345B1E714602F833
:1025B000014DE7D1083F012F02F10804D8DB00F0FC
:1025C0001FFC02460B4640464946FFF7DDFA002253
:1025D0005B46FFF78DF880468946CBE70000244034
:1025E000A08601000000F03F84D797410DF105005F
:1025F000201A0DF1050702E0401E761E7F1C397877
:102600003029F9D0662D02D136B2711C03E0652D58
:102610000CBF012100210B9A126B8B181BB2984240
:10262000B8BF03461BB219001AD4814204DAC85D50
:102630003528A8BF392000DA3020CA19521E00E020
:102640005B1E12F80159491E8542F9D0392802D182
:10265000C85D401CC855002902D57F1E5B1C761C36
:1026600036B29DF830100B9800961BB23A4600F037
:1026700003F80DB0BDE8F08F2DE9F04786B00646AF
:102680008A4690461D4600F0E6FB406A376B90F89C
:102690000090012D02DA01250FF258284AF020009F
:1026A000BDF93840662808BF641C13D0672840F085
:1026B000888014F1040F73DBBC4271DA96F838009D
:1026C000641C000702D4BD42B8BF2F4624B23F1B92
:1026D00048BF002724B2F068B169012C21DA4A1CF6
:1026E00030230B54012F03DA96F83810090702D56E
:1026F00002F80090521CE742B8BF7C4224B261420B
:10270000E719AF42B261B8BF3D4671622DB2F561C3
:102710002A46B3694146181800F0BAF9781BB0622E
:10272000AEE00818A54216DA2A46414600F0B0F994
:10273000B1696918601BB161012F706203DA96F804
:102740003800000705D5F06801F80090F069401CDA
:10275000F061B76294E02246414600F099F9B06911
:1027600020182D1B012F03DA96F83810090703D51E
:10277000F16800F80190401CB0612DB2AF42B8BFC3
:102780003D46F068B3692DB22A4604EB08011818DB
:1027900000F07EF9B0692818B061781B70626FE0B4
:1027A000BD4204DA96F83810090758BF2F467F1E3D
:1027B00048BF0027BAF1670F0CBF4FF0650A4FF012
:1027C000450AB169F06818F8013B0B544A1C012F07
:1027D00005DA96F83810090758BFB26115D502F826
:1027E0000090531C012FB3610FDB6D1E2DB2AF4261
:1027F000B8BF3D462DB22A464146181800F048F9A8
:10280000B0692818B061781B7062F068B16901EB9B
:102810000008200008F801AB03D42B2008F8010BB6
:1028200003E02D2108F8011B6442002502AF08E0F7
:102830000A2200A800F028FB019807F8010B6D1C84
:10284000009C21B20129F3DA022D06DA4AF02000B9
:10285000652804BF302008F8010B4DB9302008F876
:10286000010B07E06D1E02A8285C303008F8010B50
:10287000012DF7DAF068B1690818A8EB0000F061E3
:1028800096F8380000F0140010280DD17069B16975
:102890000818716A0818F1690818B16A0818716B8C
:1028A0008842BCBF081A306206B0BDE8F087F8B5B0
:1028B00004460D4616461F46002004E0E86A401C08
:1028C000E8627F1E002047B116F8011BA868A047E8
:1028D000A8600028F2D14FF0FF30F2BD686A6C7436
:1028E0007A4C00006E616E004E414E00696E6600CB
:1028F000494E4600300000000278C9B28A421AB13F
:102900001CBF10F8012FF9E718BF00207047000026
:1029100000F10103810704D010F8011B89B1810780
:10292000FAD10268B2F10131914311F0803F04BF46
:1029300050F8042FF6E710F8011B11B110F8011B35
:10294000FBE7C01A70470000C9B2830706D0521EC9
:1029500022D310F8013B9942F7D11FE0083A13D374
:1029600002F1040241EA012141EA014150F8043B2D
:10297000121F21BF4B40A3F1013C2CEA030C1CF0B9
:10298000803FF3D0C9B2001F083210F8013B521E3D
:1029900028BF91EA030FF8D818BF0120401E7047E6
:1029A0001B4213D1094236D12AB18446B0FBF2F062
:1029B00002FB10C2704700F06FBAFCD30022002364
:1029C00070470B000200002100207047904271EB1D
:1029D000030CF6D370B5B1FA81F4B3FA83F52C1B6E
:1029E000A340C4F1200532FA05F63343A2405FF05C
:1029F0000046E64002E05B085FEA3202841A71EBAF
:102A0000030524BF204629467641F4D302000B007B
:102A10003000002170BD012ACFD970B5140C20D030
:102A2000B1FA81F4B2FA82F5C4F120046419B4F168
:102A30002006D6D3B2405FF00044F440002502E007
:102A400052085FEA3303C61A71EB020E24BF304608
:102A5000714664416D41F3D302000B002000290050
:102A600070BD0C46B1FBF2F102FB11452D0445EAA5
:102A70001045B5FBF2F402FB145580B240EA05455F
:102A8000B5FBF2F002FB105240EA044070BD0000BA
:102A900062B38B0708D0521E11F8013B00F8013BCE
:102AA00000F024808B07F6D1830740F0208000BF20
:102AB000103A07D330B4B1E83810103AA0E8381013
:102AC000F9D230BC530724BFB1E80810A0E80810C1
:102AD00044BF51F8043B40F8043BD20724BF31F80F
:102AE000022B20F8022B44BF0B7803707047083A82
:102AF00007D3B1E80810083A40F8043B40F804CB8B
:102B0000F7D25307E4E730B4436803F000420121F1
:102B10001B031B0B436004BF0368002B08D10DE0AF
:102B20000368DD0F45EA440444605B000360491E0E
:102B30004468E302F4D523031B0B436043681A4344
:102B40004260084630BC70474FF4001C1CEB410F3C
:102B500094BF1CEB430F09E041EA030C50EA4C0C14
:102B600052EA0C0C03D2994208BF9042704714BF3E
:102B70008B42824270470000F0B540F2FF7581EA57
:102B8000030C0CF0004C15EA11541DBF15EA135745
:102B9000AC42AF42E5E0BC41C1F31301C3F3130300
:102BA000801A994143F4801304D2641E40004941C5
:102BB00080185941C90241EA5051B1FBF3F603FBB9
:102BC0001611A2FB0675D7EBC020A94102D2761ED2
:102BD00080185941C90241EA5051B1FBF3FE03FB91
:102BE0001E11A2FB0E75D7EBC020A94103D2AEF196
:102BF000010E80185941890241EA9051760546EA52
:102C00008E2EB1FBF3F603FB1611A2FB0675D7EB74
:102C10008020A94102D2761E80185941C90241EA9A
:102C200050514EEA060EB1FBF3F603FB1611A2FB60
:102C30000675D7EBC020A94102D2761E80185941F3
:102C4000C90241EA5051B1FBF3F703FB1711A2FB94
:102C50000735D3EBC020A94167F100070CBF004244
:102C600047F0010766F3D5274FEA1E31B80814F57F
:102C7000806412DDBD0775F1004250EB0E5051EB40
:102C8000045111F5801F5CBF41EA0C01F0BD4CF00E
:102C90007F6141F0E0410020F0BDBD076D0840EAD2
:102CA0000E5041F48011D4F10104B4F120060ADA87
:102CB000C4F120060200E04001FA06F3E1401843A7
:102CC000B24015430EE0342C13DCC6F1200445EA73
:102CD00040056D0820FA06F2154321FA06F0A140DE
:102CE0000D43002175F1004250F1000051EB0C0141
:102CF000F0BD00205FEA0C01F0BDCFB992185B4136
:102D0000B3FA83F704BFB2FA82F6BF190B3FB7F1EB
:102D100020062FBF02FA06F3BB40C7F1200622FAB5
:102D200006F638BF3343BA401CB1E419641E33E7DA
:102D30007F4231F00041B1FA81F404BFB0FA80F66D
:102D4000A4190B3CB4F120062FBF00FA06F1A140F4
:102D5000C4F1200620FA06F638BF3143A0403C1BE0
:102D60001AE7AC421ABF05EA1357AF4212E050EA25
:102D700041061CBF52EA4306BFE750EA410730460E
:102D800061461CBF41EA0551F0BD52EA430C08BF41
:102D9000C143F0BD00204FF4001616EB410F98BF61
:102DA00016EB430F08BF16EB410F24BFC14305E0EC
:102DB00016EB430F0CBF61464CEA0551F0BD000015
:102DC000400D40EAC120490080F00D8040F00040F5
:102DD000490DA1F58061491C05D4D1F11F0154BFF3
:102DE000C840C01770474FF000007047010040F125
:102DF0000980F446404200F005F851F00041604778
:102E0000010000BF09D0B0FA80F18840C91CC1F5AB
:102E10008461090501EBD0214005704780B5134856
:102E200000F03BF80FF24801016041608160C16031
:102E30000161416181610FF23C0242628162C162C3
:102E4000016341630FF2300282630FF23402C26306
:102E50000164416401BD10B5044800F01EF8044649
:102E6000206808B9FFF7DAFF204610BDF8B2FF1F4F
:102E7000000000002E00000066616C736500000019
:102E8000747275650000000091FBF2F303FB1211F0
:102E9000C0E9003170470000704770470000803F74
:102EA000E00FFF1F4019FF1F9A9989400000204240
:102EB0000000000000000000000000000000000012
:102EC00000000000000000000000000000004E6F45
:102ED0006E4D61736B61626C650000000048617249
:102EE000644661756C740000000000004D656D4D16
:102EF000616E6167656D656E740000427573466151
:102F0000756C740000000000000055736167654631
:102F100061756C74000000000000000000000000FB
:102F200000000000000000000000000000000000A1
:102F30000000000000000000000000000000000091
:102F40000000000000000000000000000000000081
:102F50000000000000535643616C6C00000000004C
:102F60000000000044656275674D6F6E69746F7292
:102F70000000000000000000000000000000000051
:102F8000000050656E645356000000000000000011
:102F9000005379735469636B000000000000000067
:102FA000444D4130000000000000000000000044DB
:102FB0004D41310000000000000000000000444DC1
:102FC00041320000000000000000000000444D41BC
:102FD000330000000000000000000000444D4134B8
:102FE0000000000000000000000000444D413500DA
:102FF00000000000000000000000444D41360000C9
:10300000000000000000000000444D4137000000B7
:103010000000000000000000444D413800000000A6
:1030200000000000000000444D4139000000000095
:10303000000000000000444D41313000000000005D
:103040000000000000444D4131310000000000004C
:1030500000000000444D413132000000000000003B
:10306000000000444D41313300000000000000002A
:103070000000444D41313400000000000000000019
:1030800000444D4131350000000000000000000008
:10309000444D415F4572726F720000000000004DA8
:1030A000434D0000000000000000000000004654F6
:1030B000464C000000000000000000000052656166
:1030C000645F436F6C6C6973696F6E004C56445F4C
:1030D0004C565700000000000000004C4C57000008
:1030E0000000000000000000000057617463686485
:1030F0006F6700000000000000524E470000000013
:1031000000000000000000004932433000000000D1
:1031100000000000000000493243310000000000C0
:103120000000000000005350493000000000000083
:103130000000000000535049310000000000000072
:103140000000000053504932000000000000000061
:1031500000000043414E305F4F525F4D425F627549
:10316000660043414E305F4275735F4F66660000F4
:103170000043414E305F4572726F720000000000E4
:1031800043414E305F54785F5761726E696E67439A
:10319000414E305F52785F5761726E696E6743418E
:1031A0004E305F57616B655F55700000005265736C
:1031B0006572766564353100000000005265736504
:1031C000727665643532000000000043414E315F85
:1031D0004F525F4D425F6275660043414E315F4220
:1031E00075735F4F666600000043414E315F457264
:1031F000726F72000000000043414E315F54785FEF
:103200005761726E696E6743414E315F52785F5706
:1032100061726E696E6743414E315F57616B655FE6
:10322000557000000052657365727665643539002B
:1032300000000000526573657276656436300000E8
:1032400000000055415254305F52585F54580000FE
:10325000000055415254305F4552520000000000BA
:103260000055415254315F52585F545800000000DD
:1032700055415254315F4552520000000000005544
:10328000415254325F52585F54580000000055417B
:103290005254325F45525200000000000055415226
:1032A00054335F52585F5458000000005541525447
:1032B000335F455252000000000000554152543423
:1032C0005F52585F54580000000055415254345F1B
:1032D00045525200000000000055415254355F52E3
:1032E000585F54580000000055415254355F455214
:1032F0005200000000000041444330000000000084
:1033000000000000000041444331000000000000C4
:103310000000000000434D5030000000000000009D
:1033200000000000434D503100000000000000008C
:10333000000000434D50320000000000000000007B
:10334000000046544D300000000000000000000066
:103350000046544D31000000000000000000000055
:1033600046544D3200000000000000000000004301
:103370004D54000000000000000000000000525406
:1033800043000000000000000000000000526573D0
:10339000657276656438330000000000504954308F
:1033A00000000000000000000000005049543100FF
:1033B00000000000000000000000504954320000EE
:1033C00000000000000000000050495433000000DD
:1033D00000000000000000005044423000000000E7
:1033E00000000000000000555342300000000000C3
:1033F0000000000000005553424443440000000018
:103400000000000000454E45545F313538385F54A8
:10341000696D6572454E45545F5472616E736D6996
:10342000740000454E45545F5265636569766500DA
:103430000000454E45545F4572726F7200000000F7
:10344000004932533000000000000000000000007E
:103450005344484300000000000000000000004406
:103460004143300000000000000000000000444123
:1034700043310000000000000000000000545349E8
:103480003000000000000000000000004D43470035
:1034900000000000000000000000004C5054696D66
:1034A00065720000000000000000526573657276CE
:1034B000656431303200000000504F52544100002A
:1034C0000000000000000000504F52544200000075
:1034D00000000000000000504F5254430000000064
:1034E000000000000000504F525444000000000053
:1034F0000000000000504F52544500000000000042
:1035000000000000526573657276656431303800E2
:1035100000000052657365727665643130390000D1
:1035200000005265736572766564313130000000C9
:1035300000526573657276656431313100000000B8
:103540005265736572766564313132000000005255
:103550006573657276656431313300000000526531
:103560007365727665643131340000000052657312
:10357000657276656431313500000000526573650F
:1035800072766564313136000000005265736572F1
:1035900076656431313700000000526573657276DC
:1035A00065643131380000000052657365727665DC
:1035B0006431313900000000008003400090034076
:1035C00000800B4000F00F4040F00F4080F00F40B3
:1035D000C0F00F4000F10F4001020000F0000A1D92
:1035E0003000180032001801600018186400181A22
:1035F0006E00181F780013187D00131A8200131C28
:103600008C000E1296000E15A0000E18AA000E1BBC
:10361000B4000E1EC8000C1CE1000B1EFA000A1FAD
:10362000000109080090044000A0044000B00440DC
:1036300000C0044000D0044000A0064000B0064096
:1036400000C0064000D0064000A00E4000B00E4072
:10365000450045004500450046004600460047003D
:10366000470047001E00200020002000220022000A
:10367000240024002400260026002600280028001C
:103680002A002A002A002C002C002C002E002E00DC
:10369000300030003000320032003400340034009A
:1036A000360036003600380038003A003A003A005A
:1036B0003C003C003C003E003E004000400040001A
:1036C00042004200440044004400460046004600D8
:1036D000480048004A004A004A004C004C004C0098
:1036E0004E004E0050005000500052005200520058
:1036F00054005400560056005600580058005A0016
:103700005A005A005C005C005C005E005E006000D5
:103710006000600062006200620064006400660095
:1037200066006600680068006A006A006A006C0053
:103730006C006C006E006E00700070007000720013
:1037400072007200740074007600760076007800D3
:1037500078007A00C771B43FC771B43F00C04145DB
:103760009A99593FA80200003D0AD73D8FC2753E85
:103770008FC2753E0000F0409A99993E0E74DA3B74
:103780000000803F0000004000409C456A6E6B6C6A
:10379000686D4E4F43353637010000000DC11100F2
:1037A00009030CD01240173F185019031A78320041
:1037B000A00A63E0ACFF650C6600670029282C3C7A
:1037C0002A007E0C7F16802A814E8261836F847B63
:1037D0008586868E879788A489AF8AC58BD78CE823
:1037E0008D204A00491347084B144C17460522996F
:1037F0002303A6049B009C57AB069E119F0200006A
:1038000031000000020401015CB2FF1FACB2FF1FD7
:103810005CB2FF1F5CB2FF1F5CB2FF1FB50DFF1F44
:103820009C0DFF1F000000000000000000000000D1
:103830000000000000000000000000000000000088
:103840000000000000E010080810E000000F102049
:1038500020100F00001010F8000000000020203F92
:103860002020000000000000000000000000000018
:103870000000000000000000000000000000000048
:103880000000000000000000000000000000000038
:103890000000000000000000000000000000000028
:1038A0000000000000000000000000000000000018
:1038B0000000000000000000000000000000000008
:1038C00000000000000000000000000000000000F8
:1038D00000000000000000000000000000000000E8
:1038E00000000000000000000000000000000000D8
:1038F00000000000000000000000000000000000C8
:1039000000000000000000000000000000000000B7
:1039100000000000000000000000000000000000A7
:103920000000000000000000000000000000000097
:103930000000000000000000000000000000000087
:103940000000000000000000000000000000000077
:103950000000000000000000000000000000000067
:103960000000000000000000000000000000000057
:103970000000000000000000000000000000000047
:103980000000000000000000000000000000000037
:103990000000000000000000000000000000000027
:1039A0000000000000000000000000000000000017
:1039B0000000000000000000000000000000000007
:1039C00000000000000000000000000000000000F7
:1039D00000000000000000000000000000000000E7
:1039E00000000000000000000000000000000000D7
:1039F00000000000000000000000000000000000C7
:103A000000000000000000000000000000000000B6
:103A100000000000000000000000000000000000A6
:103A20000000000000000000000000000000000096
:103A30000000000000000000000000000000000086
:103A40000000000000000000000000000000000076
:103A500000000000000000F800000000000000333B
:103A60003000000000100C06100C060000000000E2
:103A70000000000040C07840C0784000043F0404CB
:103A80003F040400007088FC08300000001820FF8C
:103A9000211E0000F008F000E018000000211C03C7
:103AA0001E211E0000F00888700000001E21232443
:103AB0001927211010160E00000000000000000061
:103AC00000000000000000E01804020000000007F1
:103AD0001820400000020418E000000000402018F8
:103AE00007000000404080F0804040000202010FCB
:103AF00001020200000000F0000000000101011FAF
:103B000001010100000000000000000080B0700012
:103B100000000000000000000000000000010101A2
:103B20000101010100000000000000000030300031
:103B3000000000000000000080601804006018060B
:103B40000100000000E010080810E000000F102045
:103B500020100F00001010F8000000000020203F8F
:103B60002020000000700808088870000030282419
:103B700022213000003008888848300000182020BA
:103B800020110E000000C02010F8000000070424DF
:103B9000243F240000F80888880808000019212024
:103BA00020110E0000E0108888180000000F11207E
:103BB00020110E0000380808C83808000000003F37
:103BC000000000000070880808887000001C222196
:103BD00021221C0000E010080810E0000000312243
:103BE00022110F00000000C0C000000000000030E3
:103BF0003000000000000080000000000000806035
:103C000000000000000080402010080000010204B5
:103C1000081020004040404040404000040404049C
:103C20000404040000081020408000000020100858
:103C300004020100007048080808F000000000308D
:103C400036010000C030C828E810E000071827241B
:103C500023140B000000C038E0000000203C2302C9
:103C60000227382008F8888888700000203F20202C
:103C700020110E00C030080808083800071820205E
:103C80002010080008F808080810E000203F202055
:103C900020100F0008F88888E8081000203F202036
:103CA0002320180008F88888E8081000203F20002A
:103CB00003000000C0300808083800000718202062
:103CC000221E020008F808000008F808203F210121
:103CD00001213F20000808F8080800000020203FCC
:103CE0002020000000000808F8080800C08080803C
:103CF0007F00000008F888C028180800203F200135
:103D00002638200008F8080000000000203F20208E
:103D10002020300008F8F800F8F80800203F003FA5
:103D2000003F200008F830C00008F808203F2000BD
:103D300007183F00E01008080810E0000F102020CE
:103D400020100F0008F808080808F000203F2101A3
:103D500001010000E01008080810E0000F182424FA
:103D600038504F0008F8888888887000203F20006D
:103D7000030C302000708808080838000038202123
:103D800021221C00180808F8080818000000203F2D
:103D90002000000008F808000008F808001F202094
:103DA00020201F000878880000C838080000073865
:103DB0000E010000F80800F80008F800033C0700B6
:103DC000073C0300081868808068180820302C031E
:103DD000032C30200838C800C83808000000203FF5
:103DE0002000000010080808C838080020382621E4
:103DF00020201800000000FE020202000000007FE8
:103E000040404000000C30C00000000000000001F5
:103E10000638C00000020202FE00000000404040E0
:103E20007F00000000000402020204000000000005
:103E30000000000000000000000000008080808082
:103E4000808080800002020400000000000000006A
:103E50000000000000008080808000000019242203
:103E600022223F2008F8008080000000003F11203F
:103E700020110E000000008080800000000E112044
:103E800020201100000000808088F800000E112022
:103E900020103F200000808080800000001F222230
:103EA00022221300008080F0888888180020203F9C
:103EB000202000000000808080808000006B9494AF
:103EC0009493600008F8008080800000203F21006B
:103ED00000203F2000809898000000000020203F34
:103EE00020200000000000809898000000C0808022
:103EF000807F000008F8000080808000203F2402BE
:103F00002D302000000808F8000000000020203FAD
:103F1000202000008080808080808000203F200062
:103F20003F20003F8080008080800000203F2100F3
:103F300000203F200000808080800000001F2020A3
:103F400020201F00808000808000000080FFA120D2
:103F500020110E000000008080808000000E1120E3
:103F600020A0FF80808080008080800020203F2172
:103F70002000010000008080808080000033242425
:103F800024241900008080E0808000000000001FD1
:103F9000202000008080000000808000001F202082
:103FA00020103F20808080000080808000010E3043
:103FB0000806010080800080008080800F300C03A4
:103FC0000C300F0000808000808080000020312EA7
:103FD0000E312000808080000080808080818E7083
:103FE0001806010000808080808080000021302C35
:103FF0002221300000000000807C0202000000004E
:10400000003F404000000000FF00000000000000F2
:10401000FF0000000002027C800000000040403FE2
:10402000000000000006010102020404000000007C
:1040300000000000DFF800F0190EFF1FDFF800F0AD
:10404000710EFF1F80B5DFF8480300F009F8DFF8B4
:10405000400300F057F8DFF8380300F0E1F801BD45
:104060005FF4FF2109680180DFF8281309684180A7
:10407000DFF8241309688180DFF820130968C18004
:10408000DFF81C1309680181C64909684181C649E6
:1040900009688181C5490968C181C54909680182EA
:1040A000C44909684182C44909688182C3490968D1
:1040B000C182C34909680183C24909684183C24971
:1040C00009688183C1490968C183C14909680184BC
:1040D000C04909684184C04909688184BF490968A9
:1040E000C184BF4909680185BE4909684185BE4947
:1040F00009688185BD490968C1855FF4FE210968A9
:104100000186704710B50400B4F930009F2800F014
:104110008680B74800882080B64800886080B6480E
:104120000088A080B5480088E080B54800882081DC
:10413000B44800886081B4480088A081B3480088F2
:10414000E081B34800882082B24800886082B2488B
:104150000088A082B1480088E082B1480168B14877
:1041600000F01CFAFDF752FC2083AF480168AD480F
:1041700000F014FAFDF74AFC6083AC480168A948D6
:1041800000F00CFAFDF742FCA083A9480168A5489D
:1041900000F004FAFDF73AFCE083A6480168A14864
:1041A00000F0FCF9FDF732FC2084A34801689D482B
:1041B00000F0F4F9FDF72AFC6084A04801689948F2
:1041C00000F0ECF9FDF722FCA0849D4801689548B9
:1041D00000F0E4F9FDF71AFCE0849A480168914880
:1041E00000F0DCF9FDF712FC2085974801688D4846
:1041F00000F0D4F9FDF70AFC60859448016889480D
:1042000000F0CCF9FDF702FCA085914801688548D3
:1042100000F0C4F9FDF7FAFBE0859F20208610BD71
:1042200010B50400208872490880608871490880B0
:10423000A08871490880E088704908802089704909
:10424000088060896F490880A0896F490880E089EB
:104250006E490880208A6E490880608A6D4908800E
:10426000A08A6D490880E08A6C490880B4F918007A
:10427000FEF7BCFD774A784BFDF73AFAFDF77EFB77
:1042800067490860B4F91A00FEF7B0FD714A724B35
:10429000FDF72EFAFDF772FB63490860B4F91C00C4
:1042A000FEF7A4FD6B4A6C4BFDF722FAFDF766FBA7
:1042B0005E490860B4F91E00FEF798FD654A664B3A
:1042C000FDF716FAFDF75AFB59490860B4F92000CA
:1042D000FEF78CFD5F4A604BFDF70AFAFDF74EFBD7
:1042E00054490860B4F92200FEF780FD594A5A4B40
:1042F000FDF7FEF9FDF742FB4F490860B4F92400D1
:10430000FEF774FD534A544BFDF7F2F9FDF736FB07
:104310004A490860B4F92600FEF768FD4D4A4E4B45
:10432000FDF7E6F9FDF72AFB45490860B4F92800D6
:10433000FEF75CFD474A484BFDF7DAF9FDF71EFB37
:1043400040490860B4F92A00FEF750FD414A424B4B
:10435000FDF7CEF9FDF712FB3B490860B4F92C00DC
:10436000FEF744FD3B4A3C4BFDF7C2F9FDF706FB67
:1043700036490860B4F92E00FEF738FD354A364B51
:10438000FDF7B6F9FDF7FAFA3149086010BD0000F3
:10439000800FFF1F04F8070008F807000CF807005B
:1043A00010F8070014F8070018F807001CF80700B9
:1043B00020F8070024F8070028F807002CF8070069
:1043C00030F8070034F8070038F807003CF8070019
:1043D00040F8070044F8070048F807004CF80700C9
:1043E00050F8070054F8070058F807005CF8070079
:1043F000ACB2FF1FAEB2FF1FB0B2FF1FB2B2FF1FC1
:10440000B4B2FF1FB6B2FF1FB8B2FF1FBAB2FF1F90
:10441000BCB2FF1FBEB2FF1FC0B2FF1FC2B2FF1F60
:10442000B40FFF1F0000C842B80FFF1FBC0FFF1FD3
:10443000C00FFF1FC40FFF1FC80FFF1FCC0FFF1FB0
:10444000D00FFF1FD40FFF1FD80FFF1F1004FF1F37
:10445000DC0FFF1F7B14AE47E17A843F10B50400E8
:10446000FF20FFF7E7FDFE20FFF7E4FDB4F9002091
:104470000021FF20FFF7E2FDB4F902200421FF2014
:10448000FFF7DCFDB4F904200821FF20FFF7D6FD7B
:10449000B4F906200C21FF20FFF7D0FDB4F9082065
:1044A0001021FF20FFF7CAFDB4F90A201421FF20D4
:1044B000FFF7C4FDB4F90C201821FF20FFF7BEFD63
:1044C000B4F90E201C21FF20FFF7B8FDB4F910202D
:1044D0002021FF20FFF7B2FDB4F912202421FF2094
:1044E000FFF7ACFDB4F914202821FF20FFF7A6FD4B
:1044F000B4F916202C21FF20FFF7A0FDB4F91820F5
:104500003021FF20FFF79AFDB4F91A203421FF2053
:10451000FFF794FDB4F91C203821FF20FFF78EFD32
:10452000B4F91E203C21FF20FFF788FDB4F92020BC
:104530004021FF20FFF782FDB4F922204421FF2013
:10454000FFF77CFDB4F924204821FF20FFF776FD1A
:10455000B4F926204C21FF20FFF770FDB4F9282084
:104560005021FF20FFF76AFDB4F92A205421FF20D3
:10457000FFF764FDB4F92C205821FF20FFF75EFD02
:10458000B4F92E205C21FF20FFF758FDB4F930204C
:104590000021FE20FFF752FD10BD0000FF2212EAAD
:1045A000D05C1DBF12EAD153944593422BE09C444A
:1045B000D30780EA01021A4043EA002043EA0121BE
:1045C000A1FB0030410038BF40007CF17F010BDBD4
:1045D000FE294ADA5B0842EAC15153EA006373F1EB
:1045E000004C51EB10207047D1F1080CDCF1200198
:1045F0002FDB5B0810FA01F10B4373F1004120FA45
:104600000CF05041704794451CBF02EAD1539342CD
:1046100080EA010202F000421DD0400019D049009A
:1046200017D05BB9634514D00902B1FA81F3994000
:10463000BCEB030CC00140F00040C1E70002B0FA3F
:1046400080FC10FA0CF0B3EB0C0CC90141F00041F6
:10465000B6E71000704740000AD0490008D010F1BA
:10466000807F94BF11F1807F02E042F0FF407047ED
:10467000D043704780B5002342F21072042100201D
:1046800000F0F4FA002342F210720521002000F03D
:10469000EDFA002342F210720621002000F0E6FA43
:1046A000002342F210720721002000F0DFFA0220FE
:1046B00000F029FC012000F026FC01BD38B5DFF830
:1046C00038040068DFF83414096800F0C1FCDFF832
:1046D00030140860DFF82C040078012805D1DFF8D9
:1046E00018040068DFF818140860DFF81C0400687C
:1046F000002100F021FD19D8DFF804040168DFF87B
:104700000804006800F02AFDFDF780F9DFF8FC13CB
:104710000860DFF8EC030068DFF8EC13096800F0CC
:1047200097FCFDF773F9DFF8E8130860DFF8D803AA
:104730000068002100F054FD19D2DFF8C4030168BD
:10474000DFF8C403006800F009FDFDF75FF9DFF84A
:10475000BC130860DFF8A8030068DFF8AC13096831
:1047600000F076FCFDF752F9DFF8A4130860DFF8DB
:10477000A403007801280FD1DFF884030068FDF757
:1047800045F9DFF888130860DFF874030068FDF767
:104790003DF9DFF87C130860DFF87C03007801281E
:1047A00007D10020DFF8641308600020DFF86013F1
:1047B0000860DFF858030068002818D5DFF85C03AC
:1047C0000068DFF848130968401A0400B4F5487F10
:1047D00002DD4FF44874FFE722000621002000F0BC
:1047E0000DFB00220721002000F008FB17E0DFF896
:1047F0002C030068DFF81413096808180400B4F5E6
:10480000487F02DD4FF44874FFE7002206210020B4
:1048100000F0F4FA22000721002000F0EFFADFF8A0
:10482000F0020068002817D5DFF8F4020068B849E4
:104830000968401A0500B5F5487F02DD4FF4487558
:10484000FFE700220421002000F0D8FA2A00052109
:10485000002000F0D3FA15E0B1480068AC490968BF
:1048600008180500B5F5487F02DD4FF44875FFE7ED
:104870002A000421002000F0C1FA002205210020B6
:1048800000F0BCFA31BD80B5022000F0BFFBA549A5
:104890000860022000F026FB012000F0B7FB404238
:1048A000A1490860012000F01DFB9E480068FDF74B
:1048B000D3F89E490968FFF771FE9D4908609C483E
:1048C00000689C4900F038FC03D89B489849086070
:1048D00003E0974800689649086093480068FDF730
:1048E000BBF896490968FFF759FE95490860944856
:1048F0000068904900F020FC03D88F489049086078
:1049000003E08F4800688E490860894801688C4838
:10491000006800F023FCFCF7B3FE0022894BFCF793
:10492000E7FEFDF72BF88849086088480068884949
:10493000086085480068874908608648006884499F
:10494000096800F0F9FB16D88248006880490968B8
:1049500000F07EFB804900F0EFFB07D87C4801683F
:104960007E4800F0FBFB794908601AE0794800684E
:104970007649086015E0774800687549096800F0D5
:1049800067FB774900F02CFC07D271480168744836
:1049900000F0E4FB6D49086003E06E4800686B4975
:1049A0000860704800686949096800F051FB6E4969
:1049B00008606E48C0686D4908616C4880686B4942
:1049C000C8606A4840686949886068480068674903
:1049D0004860654800686549086001BDF8B5FFF7A3
:1049E00052FF61480068624900F0A6FB03D86148A5
:1049F0005D49086003E05C4800685B4908605E4808
:104A00000068FCF73DFE04000D005C480068FCF700
:104A100037FE00225A4BFEF7AFF806000F0052484F
:104A20000068FCF72DFE32003B00FCF761FE22001F
:104A30002B00FCF72FFFFCF7A1FF4F490860364819
:104A40000078012801D1012000E000202D490978DB
:104A5000012901D1012100E00021C0B2C9B20843FF
:104A6000002802D000204449086043480068002123
:104A700000F0B6FB03D200203F49086003E03E4847
:104A800000683D4908603C4800683E4900F054FB1E
:104A900003D83D483849086003E037480068364984
:104AA00008603A4800683A4908603A4801682E4868
:104AB0000068FFF773FD3049096800F04FFB334988
:104AC0000860F1BD10B5314800683149096800F04F
:104AD000BFFA040030480078FCF7C8FF2100FFF758
:104AE0005DFD2E49FCF7D2FF2949096800F036FB2D
:104AF0000249086010BD00002CB2FF1FF4B1FF1F77
:104B0000DCB1FF1FEFB2FF1FA8ADFF1FE0B1FF1F19
:104B1000E4B1FF1FF0B2FF1F4C0BFF1FA0B1FF1F3E
:104B2000A4B1FF1FD4B1FF1FD8B1FF1FC80CFF1FD6
:104B3000ACB1FF1F0100484500004845CC0CFF1FE9
:104B4000B0B1FF1F0000E03FA8B1FF1FB4B1FF1FCD
:104B5000F8B1FF1FFCB1FF1F0100484300004843AC
:104B6000000048C3D00CFF1FB8B1FF1FBCB1FF1F2E
:104B70000100484400004844D0B1FF1FE8B1FF1FC6
:104B8000000059400100484200004842F0B1FF1FB8
:104B9000ECB1FF1FD40CFF1FEEB2FF1F0000A041BD
:104BA00038B504000D0064B2002C03D0022C53D0A1
:104BB00049D35AE0DFF88004006850F08070DFF8D5
:104BC000781408606DB2002D0BD0022D15D00ED3D5
:104BD000042D1ED017D3062D27D020D3072D2AD081
:104BE0002FE04FF48061412000F00CFB2AE04FF4ED
:104BF0004071042000F006FB24E04FF440710520D2
:104C000000F000FB1EE04FF44071062000F0FAFABD
:104C100018E04FF48061642000F0F4FA12E04FF4E1
:104C20008061652000F0EEFA0CE04FF480616620B0
:104C300000F0E8FA06E04FF48061672000F0E2FA45
:104C400000E012E011E0DFF8F003006850F00070BF
:104C5000DFF8E413086008E0DFF8E003006850F0D4
:104C60008070DFF8D8130860FFE731BD2DE9F84FF9
:104C700004000D0016001F0064B2002C0ED064B2B8
:104C8000012C02D064B2022C02D16DB2022D05DBE0
:104C900040F28511DFF8A80300F01DFB290049B29E
:104CA000200040B2FFF77CFFDFF8980300684FF464
:104CB0007A71484380465FEA1840B0FBF6F08146BF
:104CC000002082461FFA89F9484650FA0AF0012866
:104CD00002DB1AF1010AF5E75FFA8AFABAF1080F66
:104CE00005DB4FF4D071DFF8580300F0F4FA4046CA
:104CF00030FA0AF0B0FBF6F081461FFA89F9DFF8C6
:104D0000480364B240F8249064B2002C03D0022C13
:104D100019D00CD323E01FFA89F919F1010000FB27
:104D200007F04FF47A71B0FBF1F0834617E01FFAF9
:104D300089F919F1010000FB07F04FF47A71B0FB1B
:104D4000F1F083460BE01FFA89F919F1010000FB2D
:104D500007F04FF47A71B0FBF1F08346FFE7DFF81C
:104D6000EC0264B250F824006DB210EBC500DFF81D
:104D7000DC1264B251F824106DB211EBC501C968A0
:104D800031F00401C160DFF8C40264B250F82400BD
:104D90006DB210EBC5002821C1605FFA8AFA1AF0E3
:104DA000070050F00800DFF8A41264B251F8241094
:104DB00008601FFA89F9DFF8940264B250F8240001
:104DC000C0F808900020DFF8841264B251F8241073
:104DD000C864DFF8780264B250F824006DB210EBBA
:104DE000C5001FFA8BFBC0F810B00020DFF85C1282
:104DF00064B251F824104860BDE8F18F2DE9F0410C
:104E000004000D0016005FF0000864B2002C0ED004
:104E100064B2012C02D064B2022C02D16DB2022D18
:104E200005DB4FF4F371DFF8180200F054FA64B2B6
:104E3000002C03D0022C15D00AD31DE0B6F57A7FE2
:104E400005D94FF4F671DFF8F80100F044FA13E0E9
:104E5000B6F57A7F05D94FF4F871DFF8E40100F078
:104E60003AFA09E0B6F57A7F05D94FF4FA71DFF81E
:104E7000D00100F030FAFFE7DFF8CC0164B250F85F
:104E80002400804664B2002C03D0022C15D00AD333
:104E90001DE018F1010000FB06F04FF47A71B0FB41
:104EA000F1F0070013E018F1010000FB06F04FF4E9
:104EB0007A71B0FBF1F0070009E018F1010000FB86
:104EC00006F04FF47A71B0FBF1F00700FFE7DFF86E
:104ED0007C0164B250F824006DB210EBC50007618C
:104EE000BDE8F08110B5040064B2032C04DB40F28D
:104EF000A321534800F0EFF90020544964B251F85F
:104F00002410486010BD10B5040064B2012C07D015
:104F100064B2022C04D040F2DB21494800F0DBF9F6
:104F200064B22000012802D0022811D021E04248BA
:104F3000006850F00070404908604FF4E0610C20B8
:104F400000F060F94FF4E0610D2000F05BF915E02E
:104F50003A48006850F08070384908604FF4C061EA
:104F60000A2000F04FF94FF4C0610B2000F04AF91D
:104F700004E040F21131324800F0ADF9334864B238
:104F800050F82400406D50F00400304964B251F8EC
:104F9000241048652D4864B250F82400D0F88000F1
:104FA00050F00800294964B251F82410C1F880007B
:104FB0000020264964B251F82410C8644FF6FF70EF
:104FC000224964B251F824108860204864B250F835
:104FD0002400D0F8800050F001001C4964B251F860
:104FE0002410C1F88000194864B250F82400406DC4
:104FF00050F00100154964B251F8241048650020B2
:10500000124964B251F82410486010BD38B504004C
:1050100064B2012C07D064B2022C04D040F22D31CE
:10502000074800F058F9094864B250F82400406875
:105030000500280000B232BD3C80044030800440AE
:10504000948D000008B2FF1FC8ADFF1F2C0BFF1F7F
:1050500090EA010F44BF81F0004100F087B800BF23
:10506000431A4FF000423EBF5340C01AC91800BF58
:10507000D3095FEAD05C13EB400F34BFB3EB410FB1
:1050800040E07CEBD1530CD342EA012122D8D1EB92
:10509000402009D3400A28BF5FEA500140EBCC50C2
:1050A0007047401A15D04002B0FA80F2521C90406E
:1050B000400A4FEA3C23B3EB026384BF00EB73006A
:1050C00007E040F400001A16DB07C2F10102D040ED
:1050D00018437047182BFCDC31FA03F202FA03F391
:1050E000591A38BF42F00102D2EB40203CBF4000C9
:1050F000ACF1010C5FEACC5CC20572F100414CEBF3
:105100005020704713EB400F0FD24B0009D0ACEB8F
:10511000D153022B03DB4902172BDDDD704791438E
:10512000401A4300D5D10020704713EB410FD0D374
:105130006FF00000704700004FF0807C1CEB400FC8
:1051400094BF1CEB410F05E040EA010C5FEA4C0CF8
:1051500001D28142704718BF8842704790EA010F20
:1051600044BF81F00041FFF77BBF00BF421A3CBF44
:10517000801A89184FF0004CC0F3C752FF2A24D080
:10518000C1F3C75313B3D21AD2F1190327DD4CEA86
:1051900001214CFA03F321EA0303D140C20D4CEA8A
:1051A0000020401834BF20EA0C004CEA5000D20521
:1051B00053EA006373EB0C0C52EB1020420012F127
:1051C000807F38BF7047C00DC0057047490212BFCD
:1051D0009A4200EB5120F8E7D2F11703D9D5704776
:1051E0004FF0807C1CEB400F94BF1CEB410F05E09F
:1051F00040EA010C5FEA4C0C01D28842704718BFAC
:105200008142704710B4294A12684FF40073C0B24B
:105210004409A3401A43254B1A60254AC0B24311E2
:1052200052F82320012310F01F04A340C2F8A0303D
:105230001F4AC0B2431152F82320C0B210F01F031E
:1052400042F8231010BC704710B4184A12684FF48B
:105250000073C0B24409A3401A43144B1A60144AA5
:10526000C0B2431152F82320012310F01F04A340C1
:10527000C2F8A03031F4E0610D4AC0B2431152F8D7
:105280002320C0B210F01F0352F8232012F4E06272
:105290001143074AC0B2431152F82320C0B210F0A4
:1052A0001F0342F8231010BC7047000038800440F0
:1052B000980BFF1FDFF800F0E90DFF1FBFF34F8FC2
:1052C0004648006810F4E0604549084343490860D7
:1052D000BFF34F8FFEE738B504000D00002000F04B
:1052E0008DF82A0021003F4800F0DEF8002000F091
:1052F000C0F84FF47A7000F004F9F2E738B5040012
:105300000D00210049B2022000F00AFA200032BD4F
:1053100010B50024042000F01DFA042000F050FA1B
:10532000002841D1002000F069F8042000F048FA7C
:10533000012801D101200400002000F09AF82A4839
:1053400000F0B2F84FF4FA7000F0DBF8E4B2012C90
:10535000EBD1042000F034FA0028E6D1042000F05C
:105360002FFA002806D1002000F083F8642000F016
:10537000C8F8F3E7042000F023FA012806D1002042
:1053800000F077F8322000F0BCF8F3E7174800F09F
:105390008BF8FFF78FFF642000F0B3F80020FEF7D2
:1053A00049FEFFF78BFFC0E710BD10B51048046839
:1053B000012000F023F8012000F05BF80D48E4B272
:1053C0000F2101FB0402E4B221000B4800F06CF84D
:1053D0004FF47A7000F095F8EDE700000CED00E076
:1053E0000400FA05348F000080900000B08F0000A8
:1053F00004ED00E02404FF1FD08E000010B504006F
:1054000064B2042C07DA01220121264864B2205C30
:1054100000F0EEF90EE0042004002000441E40B22B
:10542000002807D0012201211E4864B2205C00F050
:10543000DFF9F2E710BD38B504000D0064B2042CAA
:1054400007DA2900C9B2174864B2205C00F027FAD5
:105450000EE0042004002000441E40B2002807D0C3
:105460002900C9B20F4864B2205C00F018FAF2E7D4
:1054700031BD10B5040064B2042C05DA094864B2E9
:10548000205C00F046FA0CE0042004002000441EDA
:1054900040B2002805D0034864B2205C00F039FA1D
:1054A000F4E710BD080DFF1F0EB400B582B003A9CC
:1054B0000091024600AB0121034878440A30FCF712
:1054C00023FC06BC5DF810FB953B000010B5040002
:1054D000002C15D0B4F1807F03D329210F48FFF7AA
:1054E000FAFE00200E4908600E48046000200E49B4
:1054F000086005200A49086009480068C003FBD518
:1055000010BD10B504002000441E002804D0074838
:105510000068FFF7DBFFF6E710BD0000D08C00004D
:1055200010E000E014E000E018E000E000B2FF1F2F
:105530002DE9F84304000D0064B22000002808D0D3
:10554000022819D003282AD004283BD005284CD0A3
:105550005EE0DFF8E801006850F48060DFF8DC11FD
:1055600008604FF440713020FFF74CFE4FF440715B
:105570003120FFF747FE4BE0DFF8C001006850F430
:105580008050DFF8B81108604FF440716320FFF7D6
:1055900039FE4FF440716220FFF734FE38E0DFF847
:1055A0009C01006850F40050DFF8901108604FF43F
:1055B00040715020FFF726FE4FF440715120FFF755
:1055C00021FE25E0DFF87801006850F48060DFF804
:1055D000701108604FF440719920FFF713FE4FF4EB
:1055E00040719820FFF70EFE12E0DFF854010068CA
:1055F00050F40060DFF8481108604FF440718920D2
:10560000FFF700FE4FF440718820FFF7FBFDFFE736
:10561000DFF8300164B250F82400C07810F0F300D5
:10562000DFF8201164B251F82410C870DFF81401BB
:1056300064B250F824008078DFF8081164B251F8A1
:105640002410887064B2002C02D064B2012C07D1FF
:10565000DFF8F40000684FF47A714843814606E0B1
:10566000DFF8E80000684FF47A714843814628016A
:10567000B9FBF0F00600B6B2B6F5005F02DB41F60A
:10568000FF700600B9FBF5F0B6B2B0EB06100700EC
:10569000BFB2202F03DBDC212D48FFF71CFE294879
:1056A00064B250F82400007810F0E0008046C6F3A1
:1056B000042050EA0800234964B251F8241008700D
:1056C000204864B250F8240046701E4864B250F876
:1056D0002400807A10F0E000804617F01F0050EAA6
:1056E0000800184964B251F824108872154864B251
:1056F00050F82400007C50F08800124964B251F840
:10570000241008740F4864B250F82400C07850F098
:105710000C000C4964B251F82410C870BDE8F18344
:10572000084A40B252F8202012791206F8D5054AEC
:1057300040B252F82020D1717047000034800440FC
:1057400028800440AC0BFF1F00B2FF1F08B2FF1FF0
:10575000548E000010B5040064B2082C0DDA00224B
:105760000021224864B2205C00F042F803211F4867
:1057700064B2205CFFF768FD14E0082004002000FC
:10578000441E40B200280DD000220021174864B208
:10579000205C00F02DF80321144864B2205CFFF770
:1057A00053FDECE710BD10B50400104864B2205C56
:1057B00000F0CCF8002801D1002000E0012010BD4D
:1057C00010B50400200040B2FFF7EDFF00280AD119
:1057D0000A20FFF796FE200040B2FFF7E4FF002802
:1057E00001D1002000E0012010BD0000000DFF1FCE
:1057F00070B504000D0016004FF480712000C0B297
:10580000FFF700FD6DB2002D11D16048E4B26111C7
:1058100050F821005D49E4B2621151F82210496943
:10582000012214F01F039A409143416136E057482A
:10583000E4B2611150F821005449E4B2621151F808
:1058400022104969012214F01F039A40114341615B
:10585000F6B2002E11D14D48E4B2611150F821008A
:105860000068012114F01F02914088434749E4B2C7
:10587000621151F82210086010E04448E4B261114E
:1058800050F821000068012114F01F0291400843E4
:105890003E49E4B2621151F82210086070BD38B57B
:1058A00004000D003948E4B2611150F8210040694C
:1058B00014F01F010200CA40D00703D4632134480A
:1058C000FFF709FDEDB2002D11D13048E4B26111AE
:1058D00050F821000068012114F01F029140884314
:1058E0002A49E4B2621151F82210086010E02748FA
:1058F000E4B2611150F821000068012114F01F0288
:10590000914008432149E4B2621151F82210086025
:1059100031BD10B504001D48E4B2611150F82100FA
:10592000406914F01F010200CA40D00703D47B2154
:105930001748FFF7D0FC1548E4B2611150F8210078
:10594000012114F01F029140C16010BD10B5040088
:105950000E48E4B2611150F82100406914F01F01B3
:105960000200CA40D00703D58C210948FFF7B3FCD9
:105970000648E4B2611150F82100006914F01F01DB
:105980000200CA4012F0010010BD0000380BFF1FDA
:10599000D48D000010B504002000C0B200F0D2FA8F
:1059A00010BD2DE9F0410400884615002F00E4B237
:1059B0007B2C03DB0020040018F101084146C9B22A
:1059C0002000C0B200F0A7FA00200600F6B2082EB0
:1059D0000ADADFF8A804FFB210EB0710F6B2305C69
:1059E00000F04EFA761CF1E718F10101C9B220006F
:1059F000C0B200F090FA08200600F6B2102E0ADAC3
:105A0000DFF87804FFB210EB0710F6B2305C00F05C
:105A100037FA761CF1E7BDE8F0812DE9F04104008A
:105A2000884615002F00E4B27B2C03DB0020040025
:105A300018F101084146C9B22000C0B200F06BFA6B
:105A400000200600F6B2082E0CDADFF83004FFB2B0
:105A500010EB0710F6B2305CC043C0B200F010FA91
:105A6000761CEFE718F10101C9B22000C0B200F0C6
:105A700052FA08200600F6B2102E0CDADFF8FC030A
:105A8000FFB210EB0710F6B2305CC043C0B200F0BA
:105A9000F7F9761CEFE7BDE8F0812DE9F843040043
:105AA0000D001600002080465FFA88F818F90600FD
:105AB00000283CD05FFA88F818F806008146E4B266
:105AC000792C02DB00200400AD1C2900C9B22000A3
:105AD000C0B200F020FA00200700FFB2082F0BDA56
:105AE000DFF898035FFA89F910EB0910FFB2385C10
:105AF00000F0C6F97F1CF0E7691CC9B22000C0B2F3
:105B000000F009FA08200700FFB2102F0BDADFF8C7
:105B10006C035FFA89F910EB0910FFB2385C00F0F2
:105B2000AFF97F1CF0E7083418F10108BCE7BDE8C5
:105B3000F1832DE9F84304000D0016000020804693
:105B40005FFA88F818F90600002840D05FFA88F854
:105B500018F806008146E4B2792C02DB002004002C
:105B6000AD1C2900C9B22000C0B200F0D4F9002059
:105B70000700FFB2082F0DDADFF800035FFA89F99A
:105B800010EB0910FFB2385CC043C0B200F078F9E6
:105B90007F1CEEE7691CC9B22000C0B200F0BBF95F
:105BA00008200700FFB2102F0DDADFF8D0025FFAED
:105BB00089F910EB0910FFB2385CC043C0B200F0A5
:105BC0005FF97F1CEEE7083418F10108B8E7BDE87B
:105BD000F1832DE9F84F04000D00160036B2002EB7
:105BE0000AD52D222900C9B22000C0B2FFF7D9FE84
:105BF00036B27042834607E02B222900C9B220004A
:105C0000C0B2FFF7CEFEB3461FFA8BFB42F2107014
:105C10009BFBF0F081461FFA8BFB42F210709BFB5E
:105C2000F0F100FB11B04FF47A7190FBF1F0824675
:105C30001FFA8BFB4FF47A709BFBF0F100FB11B065
:105C4000642190FBF1F0ADF800001FFA8BFB64209B
:105C50009BFBF0F100FB11B00A2190FBF1F0070073
:105C60001FFA8BFB0A209BFBF0F100FB11B0804672
:105C700019F1300252B22900C9B214F10800C0B2C1
:105C8000FFF78FFE1AF1300252B22900C9B214F1A7
:105C90001000C0B2FFF785FEBDF8000010F1300221
:105CA00052B22900C9B214F11800C0B2FFF779FE50
:105CB00017F1300252B22900C9B214F12000C0B26B
:105CC000FFF76FFE18F1300252B22900C9B214F189
:105CD0002800C0B2FFF765FEBDE8F18F2DE9F84F4F
:105CE00004000D0016001F0036B2002E0AD52D222A
:105CF0002900C9B22000C0B2FFF753FE36B270428D
:105D0000834607E02B222900C9B22000C0B2FFF76A
:105D100048FEB3461FFA8BFB42F210709BFBF0F07B
:105D200081461FFA8BFB42F210709BFBF0F100FBE7
:105D300011B04FF47A7190FBF1F082461FFA8BFBA1
:105D40004FF47A709BFBF0F100FB11B0642190FBE3
:105D5000F1F0ADF802001FFA8BFB64209BFBF0F121
:105D600000FB11B00A2190FBF1F0ADF800001FFA22
:105D70008BFB0A209BFBF0F100FB11B0804619F170
:105D8000300252B22900C9B214F10800C0B2FFF7C4
:105D900008FE1AF1300252B22900C9B214F1100003
:105DA000C0B2FFF7FEFDBDF8020010F1300252B2A2
:105DB0002900C9B214F11800C0B2FFF7F2FDBDF816
:105DC000000010F1300252B22900C9B214F12000D3
:105DD000C0B2FFF7E6FD18F1300252B22900C9B295
:105DE00014F12800C0B2FFF7DCFD7FB2012F07D00D
:105DF00041D3032F1AD00ED3052F31D023D33AE04D
:105E000019F1300252B22900C9B214F10800C0B22F
:105E1000FFF703FE2FE01AF1300252B22900C9B297
:105E200014F11000C0B2FFF7F8FD24E0BDF8020045
:105E300010F1300252B22900C9B214F11800C0B2F8
:105E4000FFF7EBFD17E0BDF8000010F1300252B291
:105E50002900C9B214F12000C0B2FFF7DEFD0AE04C
:105E600018F1300252B22900C9B214F12800C0B2B0
:105E7000FFF7D3FDFFE7BDE8F18F000044380000D5
:105E800008210122DFF8AC341A600022DFF8A834C0
